{
  "_format": "hh-sol-artifact-1",
  "contractName": "WavePortal",
  "sourceName": "contracts/WavePortal.sol",
  "abi": [
    {
      "inputs": [],
      "stateMutability": "nonpayable",
      "type": "constructor"
    },
    {
      "anonymous": false,
      "inputs": [
        {
          "indexed": true,
          "internalType": "address",
          "name": "from",
          "type": "address"
        },
        {
          "indexed": false,
          "internalType": "uint256",
          "name": "timestamp",
          "type": "uint256"
        }
      ],
      "name": "Wave",
      "type": "event"
    },
    {
      "inputs": [],
      "name": "getTotalWaves",
      "outputs": [
        {
          "internalType": "uint256",
          "name": "",
          "type": "uint256"
        }
      ],
      "stateMutability": "view",
      "type": "function"
    },
    {
      "inputs": [
        {
          "internalType": "address",
          "name": "_address",
          "type": "address"
        }
      ],
      "name": "getWaveCount",
      "outputs": [
        {
          "internalType": "uint256",
          "name": "",
          "type": "uint256"
        }
      ],
      "stateMutability": "view",
      "type": "function"
    },
    {
      "inputs": [],
      "name": "totalWaves",
      "outputs": [
        {
          "internalType": "uint256",
          "name": "",
          "type": "uint256"
        }
      ],
      "stateMutability": "view",
      "type": "function"
    },
    {
      "inputs": [],
      "name": "wave",
      "outputs": [],
      "stateMutability": "nonpayable",
      "type": "function"
    },
    {
      "inputs": [
        {
          "internalType": "address",
          "name": "",
          "type": "address"
        }
      ],
      "name": "waveCounts",
      "outputs": [
        {
          "internalType": "uint256",
          "name": "",
          "type": "uint256"
        }
      ],
      "stateMutability": "view",
      "type": "function"
    }
  ],
  "bytecode": "0x608060405234801561001057600080fd5b5061003c60405180606001604052806023815260200161079a6023913961004160201b61022e1760201c565b610222565b6100dd8160405160240161005591906101d1565b6040516020818303038152906040527f41304fac000000000000000000000000000000000000000000000000000000007bffffffffffffffffffffffffffffffffffffffffffffffffffffffff19166020820180517bffffffffffffffffffffffffffffffffffffffffffffffffffffffff83818316178352505050506100e060201b60201c565b50565b610101816100fc61010460201b6102c71761012560201b60201c565b60201c565b50565b60006a636f6e736f6c652e6c6f679050600080835160208501845afa505050565b61013760201b61030d17819050919050565b61013f6101f3565b565b600081519050919050565b600082825260208201905092915050565b60005b8381101561017b578082015181840152602081019050610160565b60008484015250505050565b6000601f19601f8301169050919050565b60006101a382610141565b6101ad818561014c565b93506101bd81856020860161015d565b6101c681610187565b840191505092915050565b600060208201905081810360008301526101eb8184610198565b905092915050565b7f4e487b7100000000000000000000000000000000000000000000000000000000600052605160045260246000fd5b610569806102316000396000f3fe608060405234801561001057600080fd5b50600436106100575760003560e01c806318c69afc1461005c578063291bcab31461008c5780635b2ae087146100aa5780636fe15b44146100da5780639a2cdc08146100e4575b600080fd5b6100766004803603810190610071919061037a565b610102565b60405161008391906103c0565b60405180910390f35b61009461011a565b6040516100a191906103c0565b60405180910390f35b6100c460048036038101906100bf919061037a565b610120565b6040516100d191906103c0565b60405180910390f35b6100e2610169565b005b6100ec610225565b6040516100f991906103c0565b60405180910390f35b60016020528060005260406000206000915090505481565b60005481565b6000600160008373ffffffffffffffffffffffffffffffffffffffff1673ffffffffffffffffffffffffffffffffffffffff168152602001908152602001600020549050919050565b60008081548092919061017b9061040a565b9190505550600160003373ffffffffffffffffffffffffffffffffffffffff1673ffffffffffffffffffffffffffffffffffffffff16815260200190815260200160002060008154809291906101d09061040a565b91905055503373ffffffffffffffffffffffffffffffffffffffff167fce7cbda7c41c1644ea2be37c5d6404e6f7362d649f6d133b1e34acd5f7d8cd984260405161021b91906103c0565b60405180910390a2565b60008054905090565b6102c48160405160240161024291906104e2565b6040516020818303038152906040527f41304fac000000000000000000000000000000000000000000000000000000007bffffffffffffffffffffffffffffffffffffffffffffffffffffffff19166020820180517bffffffffffffffffffffffffffffffffffffffffffffffffffffffff83818316178352505050506102e8565b50565b60006a636f6e736f6c652e6c6f679050600080835160208501845afa505050565b6102ff816102f76102c7610302565b63ffffffff16565b50565b61030d819050919050565b610315610504565b565b600080fd5b600073ffffffffffffffffffffffffffffffffffffffff82169050919050565b60006103478261031c565b9050919050565b6103578161033c565b811461036257600080fd5b50565b6000813590506103748161034e565b92915050565b6000602082840312156103905761038f610317565b5b600061039e84828501610365565b91505092915050565b6000819050919050565b6103ba816103a7565b82525050565b60006020820190506103d560008301846103b1565b92915050565b7f4e487b7100000000000000000000000000000000000000000000000000000000600052601160045260246000fd5b6000610415826103a7565b91507fffffffffffffffffffffffffffffffffffffffffffffffffffffffffffffffff8203610447576104466103db565b5b600182019050919050565b600081519050919050565b600082825260208201905092915050565b60005b8381101561048c578082015181840152602081019050610471565b60008484015250505050565b6000601f19601f8301169050919050565b60006104b482610452565b6104be818561045d565b93506104ce81856020860161046e565b6104d781610498565b840191505092915050565b600060208201905081810360008301526104fc81846104a9565b905092915050565b7f4e487b7100000000000000000000000000000000000000000000000000000000600052605160045260246000fdfea2646970667358221220ce407155f7e6f0008801173995029bb6bdd5103e3d747d1860bb28c6255600e564736f6c63430008110033596f20796f2c204927616d2049726f6e206d616e20616e64204927616d20736d617274",
  "linkReferences": {},
  "deployedLinkReferences": {}
}